{
  "contractName": "WeMint",
  "abi": [
    {
      "anonymous": false,
      "inputs": [
        {
          "indexed": true,
          "internalType": "address",
          "name": "owner",
          "type": "address"
        },
        {
          "indexed": true,
          "internalType": "address",
          "name": "approved",
          "type": "address"
        },
        {
          "indexed": true,
          "internalType": "uint256",
          "name": "tokenId",
          "type": "uint256"
        }
      ],
      "name": "Approval",
      "type": "event"
    },
    {
      "anonymous": false,
      "inputs": [
        {
          "indexed": true,
          "internalType": "address",
          "name": "owner",
          "type": "address"
        },
        {
          "indexed": true,
          "internalType": "address",
          "name": "operator",
          "type": "address"
        },
        {
          "indexed": false,
          "internalType": "bool",
          "name": "approved",
          "type": "bool"
        }
      ],
      "name": "ApprovalForAll",
      "type": "event"
    },
    {
      "anonymous": false,
      "inputs": [
        {
          "indexed": true,
          "internalType": "address",
          "name": "previousOwner",
          "type": "address"
        },
        {
          "indexed": true,
          "internalType": "address",
          "name": "newOwner",
          "type": "address"
        }
      ],
      "name": "OwnershipTransferred",
      "type": "event"
    },
    {
      "anonymous": false,
      "inputs": [
        {
          "indexed": true,
          "internalType": "address",
          "name": "from",
          "type": "address"
        },
        {
          "indexed": true,
          "internalType": "address",
          "name": "to",
          "type": "address"
        },
        {
          "indexed": true,
          "internalType": "uint256",
          "name": "tokenId",
          "type": "uint256"
        }
      ],
      "name": "Transfer",
      "type": "event"
    },
    {
      "inputs": [
        {
          "internalType": "address",
          "name": "to",
          "type": "address"
        },
        {
          "internalType": "uint256",
          "name": "tokenId",
          "type": "uint256"
        }
      ],
      "name": "approve",
      "outputs": [],
      "stateMutability": "nonpayable",
      "type": "function"
    },
    {
      "inputs": [
        {
          "internalType": "address",
          "name": "owner",
          "type": "address"
        }
      ],
      "name": "balanceOf",
      "outputs": [
        {
          "internalType": "uint256",
          "name": "",
          "type": "uint256"
        }
      ],
      "stateMutability": "view",
      "type": "function",
      "constant": true
    },
    {
      "inputs": [
        {
          "internalType": "uint256",
          "name": "tokenId",
          "type": "uint256"
        }
      ],
      "name": "getApproved",
      "outputs": [
        {
          "internalType": "address",
          "name": "",
          "type": "address"
        }
      ],
      "stateMutability": "view",
      "type": "function",
      "constant": true
    },
    {
      "inputs": [
        {
          "internalType": "address",
          "name": "owner",
          "type": "address"
        },
        {
          "internalType": "address",
          "name": "operator",
          "type": "address"
        }
      ],
      "name": "isApprovedForAll",
      "outputs": [
        {
          "internalType": "bool",
          "name": "",
          "type": "bool"
        }
      ],
      "stateMutability": "view",
      "type": "function",
      "constant": true
    },
    {
      "inputs": [],
      "name": "name",
      "outputs": [
        {
          "internalType": "string",
          "name": "",
          "type": "string"
        }
      ],
      "stateMutability": "view",
      "type": "function",
      "constant": true
    },
    {
      "inputs": [],
      "name": "owner",
      "outputs": [
        {
          "internalType": "address",
          "name": "",
          "type": "address"
        }
      ],
      "stateMutability": "view",
      "type": "function",
      "constant": true
    },
    {
      "inputs": [
        {
          "internalType": "uint256",
          "name": "tokenId",
          "type": "uint256"
        }
      ],
      "name": "ownerOf",
      "outputs": [
        {
          "internalType": "address",
          "name": "",
          "type": "address"
        }
      ],
      "stateMutability": "view",
      "type": "function",
      "constant": true
    },
    {
      "inputs": [],
      "name": "renounceOwnership",
      "outputs": [],
      "stateMutability": "nonpayable",
      "type": "function"
    },
    {
      "inputs": [
        {
          "internalType": "address",
          "name": "from",
          "type": "address"
        },
        {
          "internalType": "address",
          "name": "to",
          "type": "address"
        },
        {
          "internalType": "uint256",
          "name": "tokenId",
          "type": "uint256"
        }
      ],
      "name": "safeTransferFrom",
      "outputs": [],
      "stateMutability": "nonpayable",
      "type": "function"
    },
    {
      "inputs": [
        {
          "internalType": "address",
          "name": "from",
          "type": "address"
        },
        {
          "internalType": "address",
          "name": "to",
          "type": "address"
        },
        {
          "internalType": "uint256",
          "name": "tokenId",
          "type": "uint256"
        },
        {
          "internalType": "bytes",
          "name": "_data",
          "type": "bytes"
        }
      ],
      "name": "safeTransferFrom",
      "outputs": [],
      "stateMutability": "nonpayable",
      "type": "function"
    },
    {
      "inputs": [
        {
          "internalType": "address",
          "name": "operator",
          "type": "address"
        },
        {
          "internalType": "bool",
          "name": "approved",
          "type": "bool"
        }
      ],
      "name": "setApprovalForAll",
      "outputs": [],
      "stateMutability": "nonpayable",
      "type": "function"
    },
    {
      "inputs": [
        {
          "internalType": "bytes4",
          "name": "interfaceId",
          "type": "bytes4"
        }
      ],
      "name": "supportsInterface",
      "outputs": [
        {
          "internalType": "bool",
          "name": "",
          "type": "bool"
        }
      ],
      "stateMutability": "view",
      "type": "function",
      "constant": true
    },
    {
      "inputs": [],
      "name": "symbol",
      "outputs": [
        {
          "internalType": "string",
          "name": "",
          "type": "string"
        }
      ],
      "stateMutability": "view",
      "type": "function",
      "constant": true
    },
    {
      "inputs": [
        {
          "internalType": "uint256",
          "name": "tokenId",
          "type": "uint256"
        }
      ],
      "name": "tokenURI",
      "outputs": [
        {
          "internalType": "string",
          "name": "",
          "type": "string"
        }
      ],
      "stateMutability": "view",
      "type": "function",
      "constant": true
    },
    {
      "inputs": [
        {
          "internalType": "address",
          "name": "from",
          "type": "address"
        },
        {
          "internalType": "address",
          "name": "to",
          "type": "address"
        },
        {
          "internalType": "uint256",
          "name": "tokenId",
          "type": "uint256"
        }
      ],
      "name": "transferFrom",
      "outputs": [],
      "stateMutability": "nonpayable",
      "type": "function"
    },
    {
      "inputs": [
        {
          "internalType": "address",
          "name": "newOwner",
          "type": "address"
        }
      ],
      "name": "transferOwnership",
      "outputs": [],
      "stateMutability": "nonpayable",
      "type": "function"
    },
    {
      "inputs": [
        {
          "internalType": "string",
          "name": "tokenURI",
          "type": "string"
        },
        {
          "internalType": "string",
          "name": "nftName",
          "type": "string"
        },
        {
          "internalType": "string",
          "name": "tokenDescription",
          "type": "string"
        }
      ],
      "name": "safemint",
      "outputs": [],
      "stateMutability": "nonpayable",
      "type": "function"
    },
    {
      "inputs": [],
      "name": "getNfts",
      "outputs": [
        {
          "components": [
            {
              "internalType": "uint256",
              "name": "tokenID",
              "type": "uint256"
            },
            {
              "internalType": "uint256",
              "name": "timestamp",
              "type": "uint256"
            },
            {
              "internalType": "string",
              "name": "tokenURI",
              "type": "string"
            },
            {
              "internalType": "string",
              "name": "tokenDescription",
              "type": "string"
            },
            {
              "internalType": "string",
              "name": "tokenName",
              "type": "string"
            }
          ],
          "internalType": "struct WeMint.Metadata[]",
          "name": "",
          "type": "tuple[]"
        }
      ],
      "stateMutability": "view",
      "type": "function",
      "constant": true
    },
    {
      "inputs": [
        {
          "internalType": "uint256",
          "name": "tokenID",
          "type": "uint256"
        }
      ],
      "name": "burnToken",
      "outputs": [],
      "stateMutability": "nonpayable",
      "type": "function"
    }
  ],
  "bytecode": "0x60806040523480156200001157600080fd5b506040518060400160405280600681526020017f57654d696e7400000000000000000000000000000000000000000000000000008152506040518060400160405280600381526020017f574d540000000000000000000000000000000000000000000000000000000000815250816000908051906020019062000096929190620001a6565b508060019080519060200190620000af929190620001a6565b505050620000d2620000c6620000d860201b60201c565b620000e060201b60201c565b620002bb565b600033905090565b6000600660009054906101000a900473ffffffffffffffffffffffffffffffffffffffff16905081600660006101000a81548173ffffffffffffffffffffffffffffffffffffffff021916908373ffffffffffffffffffffffffffffffffffffffff1602179055508173ffffffffffffffffffffffffffffffffffffffff168173ffffffffffffffffffffffffffffffffffffffff167f8be0079c531659141344cd1fd0a4f28419497f9722a3daafe3b4186f6b6457e060405160405180910390a35050565b828054620001b49062000256565b90600052602060002090601f016020900481019282620001d8576000855562000224565b82601f10620001f357805160ff191683800117855562000224565b8280016001018555821562000224579182015b828111156200022357825182559160200191906001019062000206565b5b50905062000233919062000237565b5090565b5b808211156200025257600081600090555060010162000238565b5090565b600060028204905060018216806200026f57607f821691505b602082108114156200028657620002856200028c565b5b50919050565b7f4e487b7100000000000000000000000000000000000000000000000000000000600052602260045260246000fd5b61365c80620002cb6000396000f3fe608060405234801561001057600080fd5b50600436106101215760003560e01c8063715018a6116100ad578063b88d4fde11610071578063b88d4fde146102f2578063c87b56dd1461030e578063d8cb55e31461033e578063e985e9c51461035c578063f2fde38b1461038c57610121565b8063715018a6146102745780637b47ec1a1461027e5780638da5cb5b1461029a57806395d89b41146102b8578063a22cb465146102d657610121565b806323b872dd116100f457806323b872dd146101c05780633f0d7c83146101dc57806342842e0e146101f85780636352211e1461021457806370a082311461024457610121565b806301ffc9a71461012657806306fdde0314610156578063081812fc14610174578063095ea7b3146101a4575b600080fd5b610140600480360381019061013b919061246b565b6103a8565b60405161014d9190612aa2565b60405180910390f35b61015e61048a565b60405161016b9190612abd565b60405180910390f35b61018e60048036038101906101899190612554565b61051c565b60405161019b9190612a19565b60405180910390f35b6101be60048036038101906101b9919061242f565b6105a1565b005b6101da60048036038101906101d59190612329565b6106b9565b005b6101f660048036038101906101f191906124bd565b610719565b005b610212600480360381019061020d9190612329565b610831565b005b61022e60048036038101906102299190612554565b610851565b60405161023b9190612a19565b60405180910390f35b61025e600480360381019061025991906122c4565b610903565b60405161026b9190612cff565b60405180910390f35b61027c6109bb565b005b61029860048036038101906102939190612554565b610a43565b005b6102a2610ace565b6040516102af9190612a19565b60405180910390f35b6102c0610af8565b6040516102cd9190612abd565b60405180910390f35b6102f060048036038101906102eb91906123f3565b610b8a565b005b61030c60048036038101906103079190612378565b610d0b565b005b61032860048036038101906103239190612554565b610d6d565b6040516103359190612abd565b60405180910390f35b610346610e14565b6040516103539190612a80565b60405180910390f35b610376600480360381019061037191906122ed565b61107a565b6040516103839190612aa2565b60405180910390f35b6103a660048036038101906103a191906122c4565b61110e565b005b60007f80ac58cd000000000000000000000000000000000000000000000000000000007bffffffffffffffffffffffffffffffffffffffffffffffffffffffff1916827bffffffffffffffffffffffffffffffffffffffffffffffffffffffff1916148061047357507f5b5e139f000000000000000000000000000000000000000000000000000000007bffffffffffffffffffffffffffffffffffffffffffffffffffffffff1916827bffffffffffffffffffffffffffffffffffffffffffffffffffffffff1916145b80610483575061048282611206565b5b9050919050565b60606000805461049990612f9f565b80601f01602080910402602001604051908101604052809291908181526020018280546104c590612f9f565b80156105125780601f106104e757610100808354040283529160200191610512565b820191906000526020600020905b8154815290600101906020018083116104f557829003601f168201915b5050505050905090565b600061052782611270565b610566576040517f08c379a000000000000000000000000000000000000000000000000000000000815260040161055d90612c1f565b60405180910390fd5b6004600083815260200190815260200160002060009054906101000a900473ffffffffffffffffffffffffffffffffffffffff169050919050565b60006105ac82610851565b90508073ffffffffffffffffffffffffffffffffffffffff168373ffffffffffffffffffffffffffffffffffffffff16141561061d576040517f08c379a000000000000000000000000000000000000000000000000000000000815260040161061490612c9f565b60405180910390fd5b8073ffffffffffffffffffffffffffffffffffffffff1661063c6112dc565b73ffffffffffffffffffffffffffffffffffffffff16148061066b575061066a816106656112dc565b61107a565b5b6106aa576040517f08c379a00000000000000000000000000000000000000000000000000000000081526004016106a190612b9f565b60405180910390fd5b6106b483836112e4565b505050565b6106ca6106c46112dc565b8261139d565b610709576040517f08c379a000000000000000000000000000000000000000000000000000000000815260040161070090612cbf565b60405180910390fd5b61071483838361147b565b505050565b60006107236116d7565b905061072f33826116fe565b600860003373ffffffffffffffffffffffffffffffffffffffff1673ffffffffffffffffffffffffffffffffffffffff1681526020019081526020016000206040518060a00160405280838152602001428152602001868152602001848152602001858152509080600181540180825580915050600190039060005260206000209060050201600090919091909150600082015181600001556020820151816001015560408201518160020190805190602001906107ee9291906120a8565b50606082015181600301908051906020019061080b9291906120a8565b5060808201518160040190805190602001906108289291906120a8565b50505050505050565b61084c83838360405180602001604052806000815250610d0b565b505050565b6000806002600084815260200190815260200160002060009054906101000a900473ffffffffffffffffffffffffffffffffffffffff169050600073ffffffffffffffffffffffffffffffffffffffff168173ffffffffffffffffffffffffffffffffffffffff1614156108fa576040517f08c379a00000000000000000000000000000000000000000000000000000000081526004016108f190612bdf565b60405180910390fd5b80915050919050565b60008073ffffffffffffffffffffffffffffffffffffffff168273ffffffffffffffffffffffffffffffffffffffff161415610974576040517f08c379a000000000000000000000000000000000000000000000000000000000815260040161096b90612bbf565b60405180910390fd5b600360008373ffffffffffffffffffffffffffffffffffffffff1673ffffffffffffffffffffffffffffffffffffffff168152602001908152602001600020549050919050565b6109c36112dc565b73ffffffffffffffffffffffffffffffffffffffff166109e1610ace565b73ffffffffffffffffffffffffffffffffffffffff1614610a37576040517f08c379a0000000000000000000000000000000000000000000000000000000008152600401610a2e90612c3f565b60405180910390fd5b610a41600061171c565b565b3373ffffffffffffffffffffffffffffffffffffffff16610a6382610851565b73ffffffffffffffffffffffffffffffffffffffff1614610ab9576040517f08c379a0000000000000000000000000000000000000000000000000000000008152600401610ab090612cdf565b60405180910390fd5b610ac2816117e2565b610acb816118f3565b50565b6000600660009054906101000a900473ffffffffffffffffffffffffffffffffffffffff16905090565b606060018054610b0790612f9f565b80601f0160208091040260200160405190810160405280929190818152602001828054610b3390612f9f565b8015610b805780601f10610b5557610100808354040283529160200191610b80565b820191906000526020600020905b815481529060010190602001808311610b6357829003601f168201915b5050505050905090565b610b926112dc565b73ffffffffffffffffffffffffffffffffffffffff168273ffffffffffffffffffffffffffffffffffffffff161415610c00576040517f08c379a0000000000000000000000000000000000000000000000000000000008152600401610bf790612b5f565b60405180910390fd5b8060056000610c0d6112dc565b73ffffffffffffffffffffffffffffffffffffffff1673ffffffffffffffffffffffffffffffffffffffff16815260200190815260200160002060008473ffffffffffffffffffffffffffffffffffffffff1673ffffffffffffffffffffffffffffffffffffffff16815260200190815260200160002060006101000a81548160ff0219169083151502179055508173ffffffffffffffffffffffffffffffffffffffff16610cba6112dc565b73ffffffffffffffffffffffffffffffffffffffff167f17307eab39ab6107e8899845ad3d59bd9653f200f220920489ca2b5937696c3183604051610cff9190612aa2565b60405180910390a35050565b610d1c610d166112dc565b8361139d565b610d5b576040517f08c379a0000000000000000000000000000000000000000000000000000000008152600401610d5290612cbf565b60405180910390fd5b610d6784848484611ab0565b50505050565b6060610d7882611270565b610db7576040517f08c379a0000000000000000000000000000000000000000000000000000000008152600401610dae90612c7f565b60405180910390fd5b6000610dc1611b0c565b90506000815111610de15760405180602001604052806000815250610e0c565b80610deb84611b23565b604051602001610dfc9291906129f5565b6040516020818303038152906040525b915050919050565b6060600860003373ffffffffffffffffffffffffffffffffffffffff1673ffffffffffffffffffffffffffffffffffffffff168152602001908152602001600020805480602002602001604051908101604052809291908181526020016000905b8282101561107157838290600052602060002090600502016040518060a00160405290816000820154815260200160018201548152602001600282018054610ebc90612f9f565b80601f0160208091040260200160405190810160405280929190818152602001828054610ee890612f9f565b8015610f355780601f10610f0a57610100808354040283529160200191610f35565b820191906000526020600020905b815481529060010190602001808311610f1857829003601f168201915b50505050508152602001600382018054610f4e90612f9f565b80601f0160208091040260200160405190810160405280929190818152602001828054610f7a90612f9f565b8015610fc75780601f10610f9c57610100808354040283529160200191610fc7565b820191906000526020600020905b815481529060010190602001808311610faa57829003601f168201915b50505050508152602001600482018054610fe090612f9f565b80601f016020809104026020016040519081016040528092919081815260200182805461100c90612f9f565b80156110595780601f1061102e57610100808354040283529160200191611059565b820191906000526020600020905b81548152906001019060200180831161103c57829003601f168201915b50505050508152505081526020019060010190610e75565b50505050905090565b6000600560008473ffffffffffffffffffffffffffffffffffffffff1673ffffffffffffffffffffffffffffffffffffffff16815260200190815260200160002060008373ffffffffffffffffffffffffffffffffffffffff1673ffffffffffffffffffffffffffffffffffffffff16815260200190815260200160002060009054906101000a900460ff16905092915050565b6111166112dc565b73ffffffffffffffffffffffffffffffffffffffff16611134610ace565b73ffffffffffffffffffffffffffffffffffffffff161461118a576040517f08c379a000000000000000000000000000000000000000000000000000000000815260040161118190612c3f565b60405180910390fd5b600073ffffffffffffffffffffffffffffffffffffffff168173ffffffffffffffffffffffffffffffffffffffff1614156111fa576040517f08c379a00000000000000000000000000000000000000000000000000000000081526004016111f190612aff565b60405180910390fd5b6112038161171c565b50565b60007f01ffc9a7000000000000000000000000000000000000000000000000000000007bffffffffffffffffffffffffffffffffffffffffffffffffffffffff1916827bffffffffffffffffffffffffffffffffffffffffffffffffffffffff1916149050919050565b60008073ffffffffffffffffffffffffffffffffffffffff166002600084815260200190815260200160002060009054906101000a900473ffffffffffffffffffffffffffffffffffffffff1673ffffffffffffffffffffffffffffffffffffffff1614159050919050565b600033905090565b816004600083815260200190815260200160002060006101000a81548173ffffffffffffffffffffffffffffffffffffffff021916908373ffffffffffffffffffffffffffffffffffffffff160217905550808273ffffffffffffffffffffffffffffffffffffffff1661135783610851565b73ffffffffffffffffffffffffffffffffffffffff167f8c5be1e5ebec7d5bd14f71427d1e84f3dd0314c0f7b2291e5b200ac8c7c3b92560405160405180910390a45050565b60006113a882611270565b6113e7576040517f08c379a00000000000000000000000000000000000000000000000000000000081526004016113de90612b7f565b60405180910390fd5b60006113f283610851565b90508073ffffffffffffffffffffffffffffffffffffffff168473ffffffffffffffffffffffffffffffffffffffff16148061146157508373ffffffffffffffffffffffffffffffffffffffff166114498461051c565b73ffffffffffffffffffffffffffffffffffffffff16145b806114725750611471818561107a565b5b91505092915050565b8273ffffffffffffffffffffffffffffffffffffffff1661149b82610851565b73ffffffffffffffffffffffffffffffffffffffff16146114f1576040517f08c379a00000000000000000000000000000000000000000000000000000000081526004016114e890612c5f565b60405180910390fd5b600073ffffffffffffffffffffffffffffffffffffffff168273ffffffffffffffffffffffffffffffffffffffff161415611561576040517f08c379a000000000000000000000000000000000000000000000000000000000815260040161155890612b3f565b60405180910390fd5b61156c838383611cd0565b6115776000826112e4565b6001600360008573ffffffffffffffffffffffffffffffffffffffff1673ffffffffffffffffffffffffffffffffffffffff16815260200190815260200160002060008282546115c79190612eb5565b925050819055506001600360008473ffffffffffffffffffffffffffffffffffffffff1673ffffffffffffffffffffffffffffffffffffffff168152602001908152602001600020600082825461161e9190612e2e565b92505081905550816002600083815260200190815260200160002060006101000a81548173ffffffffffffffffffffffffffffffffffffffff021916908373ffffffffffffffffffffffffffffffffffffffff160217905550808273ffffffffffffffffffffffffffffffffffffffff168473ffffffffffffffffffffffffffffffffffffffff167fddf252ad1be2c89b69c2b068fc378daa952ba7f163c4a11628f55a4df523b3ef60405160405180910390a4505050565b6000806007549050600760008154809291906116f290613002565b91905055508091505090565b611718828260405180602001604052806000815250611cd5565b5050565b6000600660009054906101000a900473ffffffffffffffffffffffffffffffffffffffff16905081600660006101000a81548173ffffffffffffffffffffffffffffffffffffffff021916908373ffffffffffffffffffffffffffffffffffffffff1602179055508173ffffffffffffffffffffffffffffffffffffffff168173ffffffffffffffffffffffffffffffffffffffff167f8be0079c531659141344cd1fd0a4f28419497f9722a3daafe3b4186f6b6457e060405160405180910390a35050565b60006117ed82610851565b90506117fb81600084611cd0565b6118066000836112e4565b6001600360008373ffffffffffffffffffffffffffffffffffffffff1673ffffffffffffffffffffffffffffffffffffffff16815260200190815260200160002060008282546118569190612eb5565b925050819055506002600083815260200190815260200160002060006101000a81549073ffffffffffffffffffffffffffffffffffffffff021916905581600073ffffffffffffffffffffffffffffffffffffffff168273ffffffffffffffffffffffffffffffffffffffff167fddf252ad1be2c89b69c2b068fc378daa952ba7f163c4a11628f55a4df523b3ef60405160405180910390a45050565b60005b600860003373ffffffffffffffffffffffffffffffffffffffff1673ffffffffffffffffffffffffffffffffffffffff16815260200190815260200160002080549050811015611aac5781600860003373ffffffffffffffffffffffffffffffffffffffff1673ffffffffffffffffffffffffffffffffffffffff16815260200190815260200160002082815481106119b8577f4e487b7100000000000000000000000000000000000000000000000000000000600052603260045260246000fd5b9060005260206000209060050201600001541415611a9957600860003373ffffffffffffffffffffffffffffffffffffffff1673ffffffffffffffffffffffffffffffffffffffff1681526020019081526020016000208181548110611a47577f4e487b7100000000000000000000000000000000000000000000000000000000600052603260045260246000fd5b90600052602060002090600502016000808201600090556001820160009055600282016000611a76919061212e565b600382016000611a86919061212e565b600482016000611a96919061212e565b50505b8080611aa490613002565b9150506118f6565b5050565b611abb84848461147b565b611ac784848484611d30565b611b06576040517f08c379a0000000000000000000000000000000000000000000000000000000008152600401611afd90612adf565b60405180910390fd5b50505050565b606060405180602001604052806000815250905090565b60606000821415611b6b576040518060400160405280600181526020017f30000000000000000000000000000000000000000000000000000000000000008152509050611ccb565b600082905060005b60008214611b9d578080611b8690613002565b915050600a82611b969190612e84565b9150611b73565b60008167ffffffffffffffff811115611bdf577f4e487b7100000000000000000000000000000000000000000000000000000000600052604160045260246000fd5b6040519080825280601f01601f191660200182016040528015611c115781602001600182028036833780820191505090505b5090505b60008514611cc457600182611c2a9190612eb5565b9150600a85611c39919061304b565b6030611c459190612e2e565b60f81b818381518110611c81577f4e487b7100000000000000000000000000000000000000000000000000000000600052603260045260246000fd5b60200101907effffffffffffffffffffffffffffffffffffffffffffffffffffffffffffff1916908160001a905350600a85611cbd9190612e84565b9450611c15565b8093505050505b919050565b505050565b611cdf8383611ec7565b611cec6000848484611d30565b611d2b576040517f08c379a0000000000000000000000000000000000000000000000000000000008152600401611d2290612adf565b60405180910390fd5b505050565b6000611d518473ffffffffffffffffffffffffffffffffffffffff16612095565b15611eba578373ffffffffffffffffffffffffffffffffffffffff1663150b7a02611d7a6112dc565b8786866040518563ffffffff1660e01b8152600401611d9c9493929190612a34565b602060405180830381600087803b158015611db657600080fd5b505af1925050508015611de757506040513d601f19601f82011682018060405250810190611de49190612494565b60015b611e6a573d8060008114611e17576040519150601f19603f3d011682016040523d82523d6000602084013e611e1c565b606091505b50600081511415611e62576040517f08c379a0000000000000000000000000000000000000000000000000000000008152600401611e5990612adf565b60405180910390fd5b805181602001fd5b63150b7a0260e01b7bffffffffffffffffffffffffffffffffffffffffffffffffffffffff1916817bffffffffffffffffffffffffffffffffffffffffffffffffffffffff191614915050611ebf565b600190505b949350505050565b600073ffffffffffffffffffffffffffffffffffffffff168273ffffffffffffffffffffffffffffffffffffffff161415611f37576040517f08c379a0000000000000000000000000000000000000000000000000000000008152600401611f2e90612bff565b60405180910390fd5b611f4081611270565b15611f80576040517f08c379a0000000000000000000000000000000000000000000000000000000008152600401611f7790612b1f565b60405180910390fd5b611f8c60008383611cd0565b6001600360008473ffffffffffffffffffffffffffffffffffffffff1673ffffffffffffffffffffffffffffffffffffffff1681526020019081526020016000206000828254611fdc9190612e2e565b92505081905550816002600083815260200190815260200160002060006101000a81548173ffffffffffffffffffffffffffffffffffffffff021916908373ffffffffffffffffffffffffffffffffffffffff160217905550808273ffffffffffffffffffffffffffffffffffffffff16600073ffffffffffffffffffffffffffffffffffffffff167fddf252ad1be2c89b69c2b068fc378daa952ba7f163c4a11628f55a4df523b3ef60405160405180910390a45050565b600080823b905060008111915050919050565b8280546120b490612f9f565b90600052602060002090601f0160209004810192826120d6576000855561211d565b82601f106120ef57805160ff191683800117855561211d565b8280016001018555821561211d579182015b8281111561211c578251825591602001919060010190612101565b5b50905061212a919061216e565b5090565b50805461213a90612f9f565b6000825580601f1061214c575061216b565b601f01602090049060005260206000209081019061216a919061216e565b5b50565b5b8082111561218757600081600090555060010161216f565b5090565b600061219e61219984612d3f565b612d1a565b9050828152602081018484840111156121b657600080fd5b6121c1848285612f5d565b509392505050565b60006121dc6121d784612d70565b612d1a565b9050828152602081018484840111156121f457600080fd5b6121ff848285612f5d565b509392505050565b600081359050612216816135ca565b92915050565b60008135905061222b816135e1565b92915050565b600081359050612240816135f8565b92915050565b600081519050612255816135f8565b92915050565b600082601f83011261226c57600080fd5b813561227c84826020860161218b565b91505092915050565b600082601f83011261229657600080fd5b81356122a68482602086016121c9565b91505092915050565b6000813590506122be8161360f565b92915050565b6000602082840312156122d657600080fd5b60006122e484828501612207565b91505092915050565b6000806040838503121561230057600080fd5b600061230e85828601612207565b925050602061231f85828601612207565b9150509250929050565b60008060006060848603121561233e57600080fd5b600061234c86828701612207565b935050602061235d86828701612207565b925050604061236e868287016122af565b9150509250925092565b6000806000806080858703121561238e57600080fd5b600061239c87828801612207565b94505060206123ad87828801612207565b93505060406123be878288016122af565b925050606085013567ffffffffffffffff8111156123db57600080fd5b6123e78782880161225b565b91505092959194509250565b6000806040838503121561240657600080fd5b600061241485828601612207565b92505060206124258582860161221c565b9150509250929050565b6000806040838503121561244257600080fd5b600061245085828601612207565b9250506020612461858286016122af565b9150509250929050565b60006020828403121561247d57600080fd5b600061248b84828501612231565b91505092915050565b6000602082840312156124a657600080fd5b60006124b484828501612246565b91505092915050565b6000806000606084860312156124d257600080fd5b600084013567ffffffffffffffff8111156124ec57600080fd5b6124f886828701612285565b935050602084013567ffffffffffffffff81111561251557600080fd5b61252186828701612285565b925050604084013567ffffffffffffffff81111561253e57600080fd5b61254a86828701612285565b9150509250925092565b60006020828403121561256657600080fd5b6000612574848285016122af565b91505092915050565b60006125898383612953565b905092915050565b61259a81612ee9565b82525050565b60006125ab82612db1565b6125b58185612ddf565b9350836020820285016125c785612da1565b8060005b8581101561260357848403895281516125e4858261257d565b94506125ef83612dd2565b925060208a019950506001810190506125cb565b50829750879550505050505092915050565b61261e81612efb565b82525050565b600061262f82612dbc565b6126398185612df0565b9350612649818560208601612f6c565b61265281613138565b840191505092915050565b600061266882612dc7565b6126728185612e01565b9350612682818560208601612f6c565b61268b81613138565b840191505092915050565b60006126a182612dc7565b6126ab8185612e12565b93506126bb818560208601612f6c565b6126c481613138565b840191505092915050565b60006126da82612dc7565b6126e48185612e23565b93506126f4818560208601612f6c565b80840191505092915050565b600061270d603283612e12565b915061271882613149565b604082019050919050565b6000612730602683612e12565b915061273b82613198565b604082019050919050565b6000612753601c83612e12565b915061275e826131e7565b602082019050919050565b6000612776602483612e12565b915061278182613210565b604082019050919050565b6000612799601983612e12565b91506127a48261325f565b602082019050919050565b60006127bc602c83612e12565b91506127c782613288565b604082019050919050565b60006127df603883612e12565b91506127ea826132d7565b604082019050919050565b6000612802602a83612e12565b915061280d82613326565b604082019050919050565b6000612825602983612e12565b915061283082613375565b604082019050919050565b6000612848602083612e12565b9150612853826133c4565b602082019050919050565b600061286b602c83612e12565b9150612876826133ed565b604082019050919050565b600061288e602083612e12565b91506128998261343c565b602082019050919050565b60006128b1602983612e12565b91506128bc82613465565b604082019050919050565b60006128d4602f83612e12565b91506128df826134b4565b604082019050919050565b60006128f7602183612e12565b915061290282613503565b604082019050919050565b600061291a603183612e12565b915061292582613552565b604082019050919050565b600061293d601683612e12565b9150612948826135a1565b602082019050919050565b600060a08301600083015161296b60008601826129d7565b50602083015161297e60208601826129d7565b5060408301518482036040860152612996828261265d565b915050606083015184820360608601526129b0828261265d565b915050608083015184820360808601526129ca828261265d565b9150508091505092915050565b6129e081612f53565b82525050565b6129ef81612f53565b82525050565b6000612a0182856126cf565b9150612a0d82846126cf565b91508190509392505050565b6000602082019050612a2e6000830184612591565b92915050565b6000608082019050612a496000830187612591565b612a566020830186612591565b612a6360408301856129e6565b8181036060830152612a758184612624565b905095945050505050565b60006020820190508181036000830152612a9a81846125a0565b905092915050565b6000602082019050612ab76000830184612615565b92915050565b60006020820190508181036000830152612ad78184612696565b905092915050565b60006020820190508181036000830152612af881612700565b9050919050565b60006020820190508181036000830152612b1881612723565b9050919050565b60006020820190508181036000830152612b3881612746565b9050919050565b60006020820190508181036000830152612b5881612769565b9050919050565b60006020820190508181036000830152612b788161278c565b9050919050565b60006020820190508181036000830152612b98816127af565b9050919050565b60006020820190508181036000830152612bb8816127d2565b9050919050565b60006020820190508181036000830152612bd8816127f5565b9050919050565b60006020820190508181036000830152612bf881612818565b9050919050565b60006020820190508181036000830152612c188161283b565b9050919050565b60006020820190508181036000830152612c388161285e565b9050919050565b60006020820190508181036000830152612c5881612881565b9050919050565b60006020820190508181036000830152612c78816128a4565b9050919050565b60006020820190508181036000830152612c98816128c7565b9050919050565b60006020820190508181036000830152612cb8816128ea565b9050919050565b60006020820190508181036000830152612cd88161290d565b9050919050565b60006020820190508181036000830152612cf881612930565b9050919050565b6000602082019050612d1460008301846129e6565b92915050565b6000612d24612d35565b9050612d308282612fd1565b919050565b6000604051905090565b600067ffffffffffffffff821115612d5a57612d59613109565b5b612d6382613138565b9050602081019050919050565b600067ffffffffffffffff821115612d8b57612d8a613109565b5b612d9482613138565b9050602081019050919050565b6000819050602082019050919050565b600081519050919050565b600081519050919050565b600081519050919050565b6000602082019050919050565b600082825260208201905092915050565b600082825260208201905092915050565b600082825260208201905092915050565b600082825260208201905092915050565b600081905092915050565b6000612e3982612f53565b9150612e4483612f53565b9250827fffffffffffffffffffffffffffffffffffffffffffffffffffffffffffffffff03821115612e7957612e7861307c565b5b828201905092915050565b6000612e8f82612f53565b9150612e9a83612f53565b925082612eaa57612ea96130ab565b5b828204905092915050565b6000612ec082612f53565b9150612ecb83612f53565b925082821015612ede57612edd61307c565b5b828203905092915050565b6000612ef482612f33565b9050919050565b60008115159050919050565b60007fffffffff0000000000000000000000000000000000000000000000000000000082169050919050565b600073ffffffffffffffffffffffffffffffffffffffff82169050919050565b6000819050919050565b82818337600083830152505050565b60005b83811015612f8a578082015181840152602081019050612f6f565b83811115612f99576000848401525b50505050565b60006002820490506001821680612fb757607f821691505b60208210811415612fcb57612fca6130da565b5b50919050565b612fda82613138565b810181811067ffffffffffffffff82111715612ff957612ff8613109565b5b80604052505050565b600061300d82612f53565b91507fffffffffffffffffffffffffffffffffffffffffffffffffffffffffffffffff8214156130405761303f61307c565b5b600182019050919050565b600061305682612f53565b915061306183612f53565b925082613071576130706130ab565b5b828206905092915050565b7f4e487b7100000000000000000000000000000000000000000000000000000000600052601160045260246000fd5b7f4e487b7100000000000000000000000000000000000000000000000000000000600052601260045260246000fd5b7f4e487b7100000000000000000000000000000000000000000000000000000000600052602260045260246000fd5b7f4e487b7100000000000000000000000000000000000000000000000000000000600052604160045260246000fd5b6000601f19601f8301169050919050565b7f4552433732313a207472616e7366657220746f206e6f6e20455243373231526560008201527f63656976657220696d706c656d656e7465720000000000000000000000000000602082015250565b7f4f776e61626c653a206e6577206f776e657220697320746865207a65726f206160008201527f6464726573730000000000000000000000000000000000000000000000000000602082015250565b7f4552433732313a20746f6b656e20616c7265616479206d696e74656400000000600082015250565b7f4552433732313a207472616e7366657220746f20746865207a65726f2061646460008201527f7265737300000000000000000000000000000000000000000000000000000000602082015250565b7f4552433732313a20617070726f766520746f2063616c6c657200000000000000600082015250565b7f4552433732313a206f70657261746f7220717565727920666f72206e6f6e657860008201527f697374656e7420746f6b656e0000000000000000000000000000000000000000602082015250565b7f4552433732313a20617070726f76652063616c6c6572206973206e6f74206f7760008201527f6e6572206e6f7220617070726f76656420666f7220616c6c0000000000000000602082015250565b7f4552433732313a2062616c616e636520717565727920666f7220746865207a6560008201527f726f206164647265737300000000000000000000000000000000000000000000602082015250565b7f4552433732313a206f776e657220717565727920666f72206e6f6e657869737460008201527f656e7420746f6b656e0000000000000000000000000000000000000000000000602082015250565b7f4552433732313a206d696e7420746f20746865207a65726f2061646472657373600082015250565b7f4552433732313a20617070726f76656420717565727920666f72206e6f6e657860008201527f697374656e7420746f6b656e0000000000000000000000000000000000000000602082015250565b7f4f776e61626c653a2063616c6c6572206973206e6f7420746865206f776e6572600082015250565b7f4552433732313a207472616e73666572206f6620746f6b656e2074686174206960008201527f73206e6f74206f776e0000000000000000000000000000000000000000000000602082015250565b7f4552433732314d657461646174613a2055524920717565727920666f72206e6f60008201527f6e6578697374656e7420746f6b656e0000000000000000000000000000000000602082015250565b7f4552433732313a20617070726f76616c20746f2063757272656e74206f776e6560008201527f7200000000000000000000000000000000000000000000000000000000000000602082015250565b7f4552433732313a207472616e736665722063616c6c6572206973206e6f74206f60008201527f776e6572206e6f7220617070726f766564000000000000000000000000000000602082015250565b7f4f6e6c79206f776e65722069732020616c6c6f77656400000000000000000000600082015250565b6135d381612ee9565b81146135de57600080fd5b50565b6135ea81612efb565b81146135f557600080fd5b50565b61360181612f07565b811461360c57600080fd5b50565b61361881612f53565b811461362357600080fd5b5056fea264697066735822122027f381136c8659f52118b744705a4ff1656375af54a5e418ecf6c3f5a2913c8f64736f6c63430008040033",
  "immutableReferences": {},
  "source": "//SPDX-License-Identifier: UNLICENSED\npragma solidity ^0.8.0;\n\n//eyJhbGciOiJIUzI1NiIsInR5cCI6IkpXVCJ9.eyJzdWIiOiJkaWQ6ZXRocjoweDczMzE5ZEQ2RkQ5MkJCMTlEZWYzNTMyNENDODQzNTFjMkRhODcwYTgiLCJpc3MiOiJuZnQtc3RvcmFnZSIsImlhdCI6MTYzMzEwNTg5MzI2NiwibmFtZSI6ImVuY29kZV9rZXkifQ.YnG2DMFB5SiQ1dfXPkZCn3q-QgTXEIKuj-IxSXceFP0\n\nimport \"@openzeppelin/contracts/access/Ownable.sol\";\nimport \"@openzeppelin/contracts/token/ERC721/ERC721.sol\";\n\ncontract WeMint is ERC721('WeMint','WMT'), Ownable{\n    uint256 tokenID;\n    \n    struct Metadata{\n        uint256 tokenID;\n        uint256 timestamp;\n        string tokenURI;\n        string tokenDescription;\n        string tokenName;\n    }\n    \n    mapping(address => Metadata[]) tokenOwners;\n    \n     function getTokenID() internal returns (uint256) {\n        uint256 newTokenID = tokenID;\n        tokenID++;\n        return newTokenID;\n    }\n    \n       function purgeMetadata(uint256 tokenID) internal {\n       for(uint256 i=0; i<tokenOwners[msg.sender].length; i++) {\n            if(tokenOwners[msg.sender][i].tokenID == tokenID) {\n                delete tokenOwners[msg.sender][i];\n            }\n        }\n    }\n\n    function safemint(string memory tokenURI, string memory nftName, string memory tokenDescription) public {\n        uint256 tokenID = getTokenID();\n        _safeMint(msg.sender, tokenID);\n\n        tokenOwners[msg.sender].push(\n            Metadata({timestamp: block.timestamp, tokenID: tokenID, tokenURI: tokenURI, tokenName: nftName, tokenDescription: tokenDescription})\n        );\n    }\n    \n    function getNfts() public view returns (Metadata[] memory){\n        return tokenOwners[msg.sender];\n    }\n\n    function burnToken(uint256 tokenID) public {\n        require(ownerOf(tokenID) == msg.sender, \"Only owner is  allowed\");\n        _burn(tokenID);\n        purgeMetadata(tokenID);\n    }\n\n \n    \n}",
  "sourcePath": "/Users/shankarraomata/Documents/encode/smart-contracts/contracts/WeMint.sol",
  "compiler": {
    "name": "solc",
    "version": "0.8.4+commit.c7e474f2.Emscripten.clang"
  },
  "schemaVersion": "3.4.3",
  "updatedAt": "2021-10-11T15:34:01.373Z",
  "networkType": "ethereum",
  "devdoc": {
    "kind": "dev",
    "methods": {
      "approve(address,uint256)": {
        "details": "See {IERC721-approve}."
      },
      "balanceOf(address)": {
        "details": "See {IERC721-balanceOf}."
      },
      "getApproved(uint256)": {
        "details": "See {IERC721-getApproved}."
      },
      "isApprovedForAll(address,address)": {
        "details": "See {IERC721-isApprovedForAll}."
      },
      "name()": {
        "details": "See {IERC721Metadata-name}."
      },
      "owner()": {
        "details": "Returns the address of the current owner."
      },
      "ownerOf(uint256)": {
        "details": "See {IERC721-ownerOf}."
      },
      "renounceOwnership()": {
        "details": "Leaves the contract without owner. It will not be possible to call `onlyOwner` functions anymore. Can only be called by the current owner. NOTE: Renouncing ownership will leave the contract without an owner, thereby removing any functionality that is only available to the owner."
      },
      "safeTransferFrom(address,address,uint256)": {
        "details": "See {IERC721-safeTransferFrom}."
      },
      "safeTransferFrom(address,address,uint256,bytes)": {
        "details": "See {IERC721-safeTransferFrom}."
      },
      "setApprovalForAll(address,bool)": {
        "details": "See {IERC721-setApprovalForAll}."
      },
      "supportsInterface(bytes4)": {
        "details": "See {IERC165-supportsInterface}."
      },
      "symbol()": {
        "details": "See {IERC721Metadata-symbol}."
      },
      "tokenURI(uint256)": {
        "details": "See {IERC721Metadata-tokenURI}."
      },
      "transferFrom(address,address,uint256)": {
        "details": "See {IERC721-transferFrom}."
      },
      "transferOwnership(address)": {
        "details": "Transfers ownership of the contract to a new account (`newOwner`). Can only be called by the current owner."
      }
    },
    "version": 1
  },
  "userdoc": {
    "kind": "user",
    "methods": {},
    "version": 1
  }
}