{
  "contractName": "WeMint",
  "abi": [
    {
      "anonymous": false,
      "inputs": [
        {
          "indexed": true,
          "internalType": "address",
          "name": "owner",
          "type": "address"
        },
        {
          "indexed": true,
          "internalType": "address",
          "name": "approved",
          "type": "address"
        },
        {
          "indexed": true,
          "internalType": "uint256",
          "name": "tokenId",
          "type": "uint256"
        }
      ],
      "name": "Approval",
      "type": "event"
    },
    {
      "anonymous": false,
      "inputs": [
        {
          "indexed": true,
          "internalType": "address",
          "name": "owner",
          "type": "address"
        },
        {
          "indexed": true,
          "internalType": "address",
          "name": "operator",
          "type": "address"
        },
        {
          "indexed": false,
          "internalType": "bool",
          "name": "approved",
          "type": "bool"
        }
      ],
      "name": "ApprovalForAll",
      "type": "event"
    },
    {
      "anonymous": false,
      "inputs": [
        {
          "indexed": true,
          "internalType": "address",
          "name": "previousOwner",
          "type": "address"
        },
        {
          "indexed": true,
          "internalType": "address",
          "name": "newOwner",
          "type": "address"
        }
      ],
      "name": "OwnershipTransferred",
      "type": "event"
    },
    {
      "anonymous": false,
      "inputs": [
        {
          "indexed": true,
          "internalType": "address",
          "name": "from",
          "type": "address"
        },
        {
          "indexed": true,
          "internalType": "address",
          "name": "to",
          "type": "address"
        },
        {
          "indexed": true,
          "internalType": "uint256",
          "name": "tokenId",
          "type": "uint256"
        }
      ],
      "name": "Transfer",
      "type": "event"
    },
    {
      "inputs": [
        {
          "internalType": "address",
          "name": "to",
          "type": "address"
        },
        {
          "internalType": "uint256",
          "name": "tokenId",
          "type": "uint256"
        }
      ],
      "name": "approve",
      "outputs": [],
      "stateMutability": "nonpayable",
      "type": "function"
    },
    {
      "inputs": [
        {
          "internalType": "address",
          "name": "owner",
          "type": "address"
        }
      ],
      "name": "balanceOf",
      "outputs": [
        {
          "internalType": "uint256",
          "name": "",
          "type": "uint256"
        }
      ],
      "stateMutability": "view",
      "type": "function",
      "constant": true
    },
    {
      "inputs": [
        {
          "internalType": "uint256",
          "name": "tokenId",
          "type": "uint256"
        }
      ],
      "name": "getApproved",
      "outputs": [
        {
          "internalType": "address",
          "name": "",
          "type": "address"
        }
      ],
      "stateMutability": "view",
      "type": "function",
      "constant": true
    },
    {
      "inputs": [
        {
          "internalType": "address",
          "name": "owner",
          "type": "address"
        },
        {
          "internalType": "address",
          "name": "operator",
          "type": "address"
        }
      ],
      "name": "isApprovedForAll",
      "outputs": [
        {
          "internalType": "bool",
          "name": "",
          "type": "bool"
        }
      ],
      "stateMutability": "view",
      "type": "function",
      "constant": true
    },
    {
      "inputs": [],
      "name": "name",
      "outputs": [
        {
          "internalType": "string",
          "name": "",
          "type": "string"
        }
      ],
      "stateMutability": "view",
      "type": "function",
      "constant": true
    },
    {
      "inputs": [],
      "name": "owner",
      "outputs": [
        {
          "internalType": "address",
          "name": "",
          "type": "address"
        }
      ],
      "stateMutability": "view",
      "type": "function",
      "constant": true
    },
    {
      "inputs": [
        {
          "internalType": "uint256",
          "name": "tokenId",
          "type": "uint256"
        }
      ],
      "name": "ownerOf",
      "outputs": [
        {
          "internalType": "address",
          "name": "",
          "type": "address"
        }
      ],
      "stateMutability": "view",
      "type": "function",
      "constant": true
    },
    {
      "inputs": [],
      "name": "renounceOwnership",
      "outputs": [],
      "stateMutability": "nonpayable",
      "type": "function"
    },
    {
      "inputs": [
        {
          "internalType": "address",
          "name": "from",
          "type": "address"
        },
        {
          "internalType": "address",
          "name": "to",
          "type": "address"
        },
        {
          "internalType": "uint256",
          "name": "tokenId",
          "type": "uint256"
        }
      ],
      "name": "safeTransferFrom",
      "outputs": [],
      "stateMutability": "nonpayable",
      "type": "function"
    },
    {
      "inputs": [
        {
          "internalType": "address",
          "name": "from",
          "type": "address"
        },
        {
          "internalType": "address",
          "name": "to",
          "type": "address"
        },
        {
          "internalType": "uint256",
          "name": "tokenId",
          "type": "uint256"
        },
        {
          "internalType": "bytes",
          "name": "_data",
          "type": "bytes"
        }
      ],
      "name": "safeTransferFrom",
      "outputs": [],
      "stateMutability": "nonpayable",
      "type": "function"
    },
    {
      "inputs": [
        {
          "internalType": "address",
          "name": "operator",
          "type": "address"
        },
        {
          "internalType": "bool",
          "name": "approved",
          "type": "bool"
        }
      ],
      "name": "setApprovalForAll",
      "outputs": [],
      "stateMutability": "nonpayable",
      "type": "function"
    },
    {
      "inputs": [
        {
          "internalType": "bytes4",
          "name": "interfaceId",
          "type": "bytes4"
        }
      ],
      "name": "supportsInterface",
      "outputs": [
        {
          "internalType": "bool",
          "name": "",
          "type": "bool"
        }
      ],
      "stateMutability": "view",
      "type": "function",
      "constant": true
    },
    {
      "inputs": [],
      "name": "symbol",
      "outputs": [
        {
          "internalType": "string",
          "name": "",
          "type": "string"
        }
      ],
      "stateMutability": "view",
      "type": "function",
      "constant": true
    },
    {
      "inputs": [
        {
          "internalType": "uint256",
          "name": "tokenId",
          "type": "uint256"
        }
      ],
      "name": "tokenURI",
      "outputs": [
        {
          "internalType": "string",
          "name": "",
          "type": "string"
        }
      ],
      "stateMutability": "view",
      "type": "function",
      "constant": true
    },
    {
      "inputs": [
        {
          "internalType": "address",
          "name": "from",
          "type": "address"
        },
        {
          "internalType": "address",
          "name": "to",
          "type": "address"
        },
        {
          "internalType": "uint256",
          "name": "tokenId",
          "type": "uint256"
        }
      ],
      "name": "transferFrom",
      "outputs": [],
      "stateMutability": "nonpayable",
      "type": "function"
    },
    {
      "inputs": [
        {
          "internalType": "address",
          "name": "newOwner",
          "type": "address"
        }
      ],
      "name": "transferOwnership",
      "outputs": [],
      "stateMutability": "nonpayable",
      "type": "function"
    },
    {
      "inputs": [
        {
          "internalType": "uint256",
          "name": "tokenId",
          "type": "uint256"
        },
        {
          "internalType": "uint256",
          "name": "price",
          "type": "uint256"
        }
      ],
      "name": "setSale",
      "outputs": [],
      "stateMutability": "nonpayable",
      "type": "function"
    },
    {
      "inputs": [
        {
          "internalType": "uint256",
          "name": "tokenId",
          "type": "uint256"
        }
      ],
      "name": "buyTokenOnSale",
      "outputs": [],
      "stateMutability": "payable",
      "type": "function",
      "payable": true
    },
    {
      "inputs": [
        {
          "internalType": "string",
          "name": "tokenURI",
          "type": "string"
        },
        {
          "internalType": "string",
          "name": "nftName",
          "type": "string"
        },
        {
          "internalType": "string",
          "name": "tokenDescription",
          "type": "string"
        }
      ],
      "name": "safemint",
      "outputs": [],
      "stateMutability": "nonpayable",
      "type": "function"
    },
    {
      "inputs": [],
      "name": "getNfts",
      "outputs": [
        {
          "components": [
            {
              "internalType": "uint256",
              "name": "tokenID",
              "type": "uint256"
            },
            {
              "internalType": "uint256",
              "name": "timestamp",
              "type": "uint256"
            },
            {
              "internalType": "string",
              "name": "tokenURI",
              "type": "string"
            },
            {
              "internalType": "string",
              "name": "tokenDescription",
              "type": "string"
            },
            {
              "internalType": "string",
              "name": "tokenName",
              "type": "string"
            }
          ],
          "internalType": "struct WeMint.Metadata[]",
          "name": "",
          "type": "tuple[]"
        }
      ],
      "stateMutability": "view",
      "type": "function",
      "constant": true
    },
    {
      "inputs": [
        {
          "internalType": "uint256",
          "name": "tokenID",
          "type": "uint256"
        }
      ],
      "name": "burnToken",
      "outputs": [],
      "stateMutability": "nonpayable",
      "type": "function"
    }
  ],
  "bytecode": "0x60806040523480156200001157600080fd5b506040518060400160405280600681526020017f57654d696e7400000000000000000000000000000000000000000000000000008152506040518060400160405280600381526020017f574d540000000000000000000000000000000000000000000000000000000000815250816000908051906020019062000096929190620001a6565b508060019080519060200190620000af929190620001a6565b505050620000d2620000c6620000d860201b60201c565b620000e060201b60201c565b620002bb565b600033905090565b6000600660009054906101000a900473ffffffffffffffffffffffffffffffffffffffff16905081600660006101000a81548173ffffffffffffffffffffffffffffffffffffffff021916908373ffffffffffffffffffffffffffffffffffffffff1602179055508173ffffffffffffffffffffffffffffffffffffffff168173ffffffffffffffffffffffffffffffffffffffff167f8be0079c531659141344cd1fd0a4f28419497f9722a3daafe3b4186f6b6457e060405160405180910390a35050565b828054620001b49062000256565b90600052602060002090601f016020900481019282620001d8576000855562000224565b82601f10620001f357805160ff191683800117855562000224565b8280016001018555821562000224579182015b828111156200022357825182559160200191906001019062000206565b5b50905062000233919062000237565b5090565b5b808211156200025257600081600090555060010162000238565b5090565b600060028204905060018216806200026f57607f821691505b602082108114156200028657620002856200028c565b5b50919050565b7f4e487b7100000000000000000000000000000000000000000000000000000000600052602260045260246000fd5b613b2980620002cb6000396000f3fe6080604052600436106101295760003560e01c8063715018a6116100ab578063b88d4fde1161006f578063b88d4fde146103cc578063c87b56dd146103f5578063d8cb55e314610432578063e985e9c51461045d578063f2fde38b1461049a578063f901a18f146104c357610129565b8063715018a61461030d5780637b47ec1a146103245780638da5cb5b1461034d57806395d89b4114610378578063a22cb465146103a357610129565b806323b872dd116100f257806323b872dd146102185780633f0d7c831461024157806342842e0e1461026a5780636352211e1461029357806370a08231146102d057610129565b8062c475a21461012e57806301ffc9a71461014a57806306fdde0314610187578063081812fc146101b2578063095ea7b3146101ef575b600080fd5b61014860048036038101906101439190612855565b6104ec565b005b34801561015657600080fd5b50610171600480360381019061016c919061276c565b610607565b60405161017e9190612e48565b60405180910390f35b34801561019357600080fd5b5061019c6106e9565b6040516101a99190612e63565b60405180910390f35b3480156101be57600080fd5b506101d960048036038101906101d49190612855565b61077b565b6040516101e69190612dbf565b60405180910390f35b3480156101fb57600080fd5b5061021660048036038101906102119190612730565b610800565b005b34801561022457600080fd5b5061023f600480360381019061023a919061262a565b610918565b005b34801561024d57600080fd5b50610268600480360381019061026391906127be565b610978565b005b34801561027657600080fd5b50610291600480360381019061028c919061262a565b610a90565b005b34801561029f57600080fd5b506102ba60048036038101906102b59190612855565b610ab0565b6040516102c79190612dbf565b60405180910390f35b3480156102dc57600080fd5b506102f760048036038101906102f291906125c5565b610b62565b6040516103049190613105565b60405180910390f35b34801561031957600080fd5b50610322610c1a565b005b34801561033057600080fd5b5061034b60048036038101906103469190612855565b610ca2565b005b34801561035957600080fd5b50610362610d2d565b60405161036f9190612dbf565b60405180910390f35b34801561038457600080fd5b5061038d610d57565b60405161039a9190612e63565b60405180910390f35b3480156103af57600080fd5b506103ca60048036038101906103c591906126f4565b610de9565b005b3480156103d857600080fd5b506103f360048036038101906103ee9190612679565b610f6a565b005b34801561040157600080fd5b5061041c60048036038101906104179190612855565b610fcc565b6040516104299190612e63565b60405180910390f35b34801561043e57600080fd5b50610447611073565b6040516104549190612e26565b60405180910390f35b34801561046957600080fd5b50610484600480360381019061047f91906125ee565b6112d9565b6040516104919190612e48565b60405180910390f35b3480156104a657600080fd5b506104c160048036038101906104bc91906125c5565b61136d565b005b3480156104cf57600080fd5b506104ea60048036038101906104e5919061287e565b611465565b005b6000600860008381526020019081526020016000205490506000811415610548576040517f08c379a000000000000000000000000000000000000000000000000000000000815260040161053f906130e5565b60405180910390fd5b80341461058a576040517f08c379a000000000000000000000000000000000000000000000000000000000815260040161058190612f05565b60405180910390fd5b600061059583610ab0565b9050600060086000858152602001908152602001600020819055506105bb813385610918565b8073ffffffffffffffffffffffffffffffffffffffff166108fc349081150290604051600060405180830381858888f19350505050158015610601573d6000803e3d6000fd5b50505050565b60007f80ac58cd000000000000000000000000000000000000000000000000000000007bffffffffffffffffffffffffffffffffffffffffffffffffffffffff1916827bffffffffffffffffffffffffffffffffffffffffffffffffffffffff191614806106d257507f5b5e139f000000000000000000000000000000000000000000000000000000007bffffffffffffffffffffffffffffffffffffffffffffffffffffffff1916827bffffffffffffffffffffffffffffffffffffffffffffffffffffffff1916145b806106e257506106e182611507565b5b9050919050565b6060600080546106f8906133a5565b80601f0160208091040260200160405190810160405280929190818152602001828054610724906133a5565b80156107715780601f1061074657610100808354040283529160200191610771565b820191906000526020600020905b81548152906001019060200180831161075457829003601f168201915b5050505050905090565b600061078682611571565b6107c5576040517f08c379a00000000000000000000000000000000000000000000000000000000081526004016107bc90613005565b60405180910390fd5b6004600083815260200190815260200160002060009054906101000a900473ffffffffffffffffffffffffffffffffffffffff169050919050565b600061080b82610ab0565b90508073ffffffffffffffffffffffffffffffffffffffff168373ffffffffffffffffffffffffffffffffffffffff16141561087c576040517f08c379a000000000000000000000000000000000000000000000000000000000815260040161087390613085565b60405180910390fd5b8073ffffffffffffffffffffffffffffffffffffffff1661089b6115dd565b73ffffffffffffffffffffffffffffffffffffffff1614806108ca57506108c9816108c46115dd565b6112d9565b5b610909576040517f08c379a000000000000000000000000000000000000000000000000000000000815260040161090090612f85565b60405180910390fd5b61091383836115e5565b505050565b6109296109236115dd565b8261169e565b610968576040517f08c379a000000000000000000000000000000000000000000000000000000000815260040161095f906130a5565b60405180910390fd5b61097383838361177c565b505050565b60006109826119d8565b905061098e33826119ff565b600960003373ffffffffffffffffffffffffffffffffffffffff1673ffffffffffffffffffffffffffffffffffffffff1681526020019081526020016000206040518060a0016040528083815260200142815260200186815260200184815260200185815250908060018154018082558091505060019003906000526020600020906005020160009091909190915060008201518160000155602082015181600101556040820151816002019080519060200190610a4d9291906123a9565b506060820151816003019080519060200190610a6a9291906123a9565b506080820151816004019080519060200190610a879291906123a9565b50505050505050565b610aab83838360405180602001604052806000815250610f6a565b505050565b6000806002600084815260200190815260200160002060009054906101000a900473ffffffffffffffffffffffffffffffffffffffff169050600073ffffffffffffffffffffffffffffffffffffffff168173ffffffffffffffffffffffffffffffffffffffff161415610b59576040517f08c379a0000000000000000000000000000000000000000000000000000000008152600401610b5090612fc5565b60405180910390fd5b80915050919050565b60008073ffffffffffffffffffffffffffffffffffffffff168273ffffffffffffffffffffffffffffffffffffffff161415610bd3576040517f08c379a0000000000000000000000000000000000000000000000000000000008152600401610bca90612fa5565b60405180910390fd5b600360008373ffffffffffffffffffffffffffffffffffffffff1673ffffffffffffffffffffffffffffffffffffffff168152602001908152602001600020549050919050565b610c226115dd565b73ffffffffffffffffffffffffffffffffffffffff16610c40610d2d565b73ffffffffffffffffffffffffffffffffffffffff1614610c96576040517f08c379a0000000000000000000000000000000000000000000000000000000008152600401610c8d90613025565b60405180910390fd5b610ca06000611a1d565b565b3373ffffffffffffffffffffffffffffffffffffffff16610cc282610ab0565b73ffffffffffffffffffffffffffffffffffffffff1614610d18576040517f08c379a0000000000000000000000000000000000000000000000000000000008152600401610d0f906130c5565b60405180910390fd5b610d2181611ae3565b610d2a81611bf4565b50565b6000600660009054906101000a900473ffffffffffffffffffffffffffffffffffffffff16905090565b606060018054610d66906133a5565b80601f0160208091040260200160405190810160405280929190818152602001828054610d92906133a5565b8015610ddf5780601f10610db457610100808354040283529160200191610ddf565b820191906000526020600020905b815481529060010190602001808311610dc257829003601f168201915b5050505050905090565b610df16115dd565b73ffffffffffffffffffffffffffffffffffffffff168273ffffffffffffffffffffffffffffffffffffffff161415610e5f576040517f08c379a0000000000000000000000000000000000000000000000000000000008152600401610e5690612f45565b60405180910390fd5b8060056000610e6c6115dd565b73ffffffffffffffffffffffffffffffffffffffff1673ffffffffffffffffffffffffffffffffffffffff16815260200190815260200160002060008473ffffffffffffffffffffffffffffffffffffffff1673ffffffffffffffffffffffffffffffffffffffff16815260200190815260200160002060006101000a81548160ff0219169083151502179055508173ffffffffffffffffffffffffffffffffffffffff16610f196115dd565b73ffffffffffffffffffffffffffffffffffffffff167f17307eab39ab6107e8899845ad3d59bd9653f200f220920489ca2b5937696c3183604051610f5e9190612e48565b60405180910390a35050565b610f7b610f756115dd565b8361169e565b610fba576040517f08c379a0000000000000000000000000000000000000000000000000000000008152600401610fb1906130a5565b60405180910390fd5b610fc684848484611db1565b50505050565b6060610fd782611571565b611016576040517f08c379a000000000000000000000000000000000000000000000000000000000815260040161100d90613065565b60405180910390fd5b6000611020611e0d565b90506000815111611040576040518060200160405280600081525061106b565b8061104a84611e24565b60405160200161105b929190612d9b565b6040516020818303038152906040525b915050919050565b6060600960003373ffffffffffffffffffffffffffffffffffffffff1673ffffffffffffffffffffffffffffffffffffffff168152602001908152602001600020805480602002602001604051908101604052809291908181526020016000905b828210156112d057838290600052602060002090600502016040518060a0016040529081600082015481526020016001820154815260200160028201805461111b906133a5565b80601f0160208091040260200160405190810160405280929190818152602001828054611147906133a5565b80156111945780601f1061116957610100808354040283529160200191611194565b820191906000526020600020905b81548152906001019060200180831161117757829003601f168201915b505050505081526020016003820180546111ad906133a5565b80601f01602080910402602001604051908101604052809291908181526020018280546111d9906133a5565b80156112265780601f106111fb57610100808354040283529160200191611226565b820191906000526020600020905b81548152906001019060200180831161120957829003601f168201915b5050505050815260200160048201805461123f906133a5565b80601f016020809104026020016040519081016040528092919081815260200182805461126b906133a5565b80156112b85780601f1061128d576101008083540402835291602001916112b8565b820191906000526020600020905b81548152906001019060200180831161129b57829003601f168201915b505050505081525050815260200190600101906110d4565b50505050905090565b6000600560008473ffffffffffffffffffffffffffffffffffffffff1673ffffffffffffffffffffffffffffffffffffffff16815260200190815260200160002060008373ffffffffffffffffffffffffffffffffffffffff1673ffffffffffffffffffffffffffffffffffffffff16815260200190815260200160002060009054906101000a900460ff16905092915050565b6113756115dd565b73ffffffffffffffffffffffffffffffffffffffff16611393610d2d565b73ffffffffffffffffffffffffffffffffffffffff16146113e9576040517f08c379a00000000000000000000000000000000000000000000000000000000081526004016113e090613025565b60405180910390fd5b600073ffffffffffffffffffffffffffffffffffffffff168173ffffffffffffffffffffffffffffffffffffffff161415611459576040517f08c379a000000000000000000000000000000000000000000000000000000000815260040161145090612ea5565b60405180910390fd5b61146281611a1d565b50565b600061147083610ab0565b90503373ffffffffffffffffffffffffffffffffffffffff168173ffffffffffffffffffffffffffffffffffffffff16146114e0576040517f08c379a00000000000000000000000000000000000000000000000000000000081526004016114d790612ee5565b60405180910390fd5b6114ea3084610800565b816008600085815260200190815260200160002081905550505050565b60007f01ffc9a7000000000000000000000000000000000000000000000000000000007bffffffffffffffffffffffffffffffffffffffffffffffffffffffff1916827bffffffffffffffffffffffffffffffffffffffffffffffffffffffff1916149050919050565b60008073ffffffffffffffffffffffffffffffffffffffff166002600084815260200190815260200160002060009054906101000a900473ffffffffffffffffffffffffffffffffffffffff1673ffffffffffffffffffffffffffffffffffffffff1614159050919050565b600033905090565b816004600083815260200190815260200160002060006101000a81548173ffffffffffffffffffffffffffffffffffffffff021916908373ffffffffffffffffffffffffffffffffffffffff160217905550808273ffffffffffffffffffffffffffffffffffffffff1661165883610ab0565b73ffffffffffffffffffffffffffffffffffffffff167f8c5be1e5ebec7d5bd14f71427d1e84f3dd0314c0f7b2291e5b200ac8c7c3b92560405160405180910390a45050565b60006116a982611571565b6116e8576040517f08c379a00000000000000000000000000000000000000000000000000000000081526004016116df90612f65565b60405180910390fd5b60006116f383610ab0565b90508073ffffffffffffffffffffffffffffffffffffffff168473ffffffffffffffffffffffffffffffffffffffff16148061176257508373ffffffffffffffffffffffffffffffffffffffff1661174a8461077b565b73ffffffffffffffffffffffffffffffffffffffff16145b80611773575061177281856112d9565b5b91505092915050565b8273ffffffffffffffffffffffffffffffffffffffff1661179c82610ab0565b73ffffffffffffffffffffffffffffffffffffffff16146117f2576040517f08c379a00000000000000000000000000000000000000000000000000000000081526004016117e990613045565b60405180910390fd5b600073ffffffffffffffffffffffffffffffffffffffff168273ffffffffffffffffffffffffffffffffffffffff161415611862576040517f08c379a000000000000000000000000000000000000000000000000000000000815260040161185990612f25565b60405180910390fd5b61186d838383611fd1565b6118786000826115e5565b6001600360008573ffffffffffffffffffffffffffffffffffffffff1673ffffffffffffffffffffffffffffffffffffffff16815260200190815260200160002060008282546118c891906132bb565b925050819055506001600360008473ffffffffffffffffffffffffffffffffffffffff1673ffffffffffffffffffffffffffffffffffffffff168152602001908152602001600020600082825461191f9190613234565b92505081905550816002600083815260200190815260200160002060006101000a81548173ffffffffffffffffffffffffffffffffffffffff021916908373ffffffffffffffffffffffffffffffffffffffff160217905550808273ffffffffffffffffffffffffffffffffffffffff168473ffffffffffffffffffffffffffffffffffffffff167fddf252ad1be2c89b69c2b068fc378daa952ba7f163c4a11628f55a4df523b3ef60405160405180910390a4505050565b6000806007549050600760008154809291906119f390613408565b91905055508091505090565b611a19828260405180602001604052806000815250611fd6565b5050565b6000600660009054906101000a900473ffffffffffffffffffffffffffffffffffffffff16905081600660006101000a81548173ffffffffffffffffffffffffffffffffffffffff021916908373ffffffffffffffffffffffffffffffffffffffff1602179055508173ffffffffffffffffffffffffffffffffffffffff168173ffffffffffffffffffffffffffffffffffffffff167f8be0079c531659141344cd1fd0a4f28419497f9722a3daafe3b4186f6b6457e060405160405180910390a35050565b6000611aee82610ab0565b9050611afc81600084611fd1565b611b076000836115e5565b6001600360008373ffffffffffffffffffffffffffffffffffffffff1673ffffffffffffffffffffffffffffffffffffffff1681526020019081526020016000206000828254611b5791906132bb565b925050819055506002600083815260200190815260200160002060006101000a81549073ffffffffffffffffffffffffffffffffffffffff021916905581600073ffffffffffffffffffffffffffffffffffffffff168273ffffffffffffffffffffffffffffffffffffffff167fddf252ad1be2c89b69c2b068fc378daa952ba7f163c4a11628f55a4df523b3ef60405160405180910390a45050565b60005b600960003373ffffffffffffffffffffffffffffffffffffffff1673ffffffffffffffffffffffffffffffffffffffff16815260200190815260200160002080549050811015611dad5781600960003373ffffffffffffffffffffffffffffffffffffffff1673ffffffffffffffffffffffffffffffffffffffff1681526020019081526020016000208281548110611cb9577f4e487b7100000000000000000000000000000000000000000000000000000000600052603260045260246000fd5b9060005260206000209060050201600001541415611d9a57600960003373ffffffffffffffffffffffffffffffffffffffff1673ffffffffffffffffffffffffffffffffffffffff1681526020019081526020016000208181548110611d48577f4e487b7100000000000000000000000000000000000000000000000000000000600052603260045260246000fd5b90600052602060002090600502016000808201600090556001820160009055600282016000611d77919061242f565b600382016000611d87919061242f565b600482016000611d97919061242f565b50505b8080611da590613408565b915050611bf7565b5050565b611dbc84848461177c565b611dc884848484612031565b611e07576040517f08c379a0000000000000000000000000000000000000000000000000000000008152600401611dfe90612e85565b60405180910390fd5b50505050565b606060405180602001604052806000815250905090565b60606000821415611e6c576040518060400160405280600181526020017f30000000000000000000000000000000000000000000000000000000000000008152509050611fcc565b600082905060005b60008214611e9e578080611e8790613408565b915050600a82611e97919061328a565b9150611e74565b60008167ffffffffffffffff811115611ee0577f4e487b7100000000000000000000000000000000000000000000000000000000600052604160045260246000fd5b6040519080825280601f01601f191660200182016040528015611f125781602001600182028036833780820191505090505b5090505b60008514611fc557600182611f2b91906132bb565b9150600a85611f3a9190613451565b6030611f469190613234565b60f81b818381518110611f82577f4e487b7100000000000000000000000000000000000000000000000000000000600052603260045260246000fd5b60200101907effffffffffffffffffffffffffffffffffffffffffffffffffffffffffffff1916908160001a905350600a85611fbe919061328a565b9450611f16565b8093505050505b919050565b505050565b611fe083836121c8565b611fed6000848484612031565b61202c576040517f08c379a000000000000000000000000000000000000000000000000000000000815260040161202390612e85565b60405180910390fd5b505050565b60006120528473ffffffffffffffffffffffffffffffffffffffff16612396565b156121bb578373ffffffffffffffffffffffffffffffffffffffff1663150b7a0261207b6115dd565b8786866040518563ffffffff1660e01b815260040161209d9493929190612dda565b602060405180830381600087803b1580156120b757600080fd5b505af19250505080156120e857506040513d601f19601f820116820180604052508101906120e59190612795565b60015b61216b573d8060008114612118576040519150601f19603f3d011682016040523d82523d6000602084013e61211d565b606091505b50600081511415612163576040517f08c379a000000000000000000000000000000000000000000000000000000000815260040161215a90612e85565b60405180910390fd5b805181602001fd5b63150b7a0260e01b7bffffffffffffffffffffffffffffffffffffffffffffffffffffffff1916817bffffffffffffffffffffffffffffffffffffffffffffffffffffffff1916149150506121c0565b600190505b949350505050565b600073ffffffffffffffffffffffffffffffffffffffff168273ffffffffffffffffffffffffffffffffffffffff161415612238576040517f08c379a000000000000000000000000000000000000000000000000000000000815260040161222f90612fe5565b60405180910390fd5b61224181611571565b15612281576040517f08c379a000000000000000000000000000000000000000000000000000000000815260040161227890612ec5565b60405180910390fd5b61228d60008383611fd1565b6001600360008473ffffffffffffffffffffffffffffffffffffffff1673ffffffffffffffffffffffffffffffffffffffff16815260200190815260200160002060008282546122dd9190613234565b92505081905550816002600083815260200190815260200160002060006101000a81548173ffffffffffffffffffffffffffffffffffffffff021916908373ffffffffffffffffffffffffffffffffffffffff160217905550808273ffffffffffffffffffffffffffffffffffffffff16600073ffffffffffffffffffffffffffffffffffffffff167fddf252ad1be2c89b69c2b068fc378daa952ba7f163c4a11628f55a4df523b3ef60405160405180910390a45050565b600080823b905060008111915050919050565b8280546123b5906133a5565b90600052602060002090601f0160209004810192826123d7576000855561241e565b82601f106123f057805160ff191683800117855561241e565b8280016001018555821561241e579182015b8281111561241d578251825591602001919060010190612402565b5b50905061242b919061246f565b5090565b50805461243b906133a5565b6000825580601f1061244d575061246c565b601f01602090049060005260206000209081019061246b919061246f565b5b50565b5b80821115612488576000816000905550600101612470565b5090565b600061249f61249a84613145565b613120565b9050828152602081018484840111156124b757600080fd5b6124c2848285613363565b509392505050565b60006124dd6124d884613176565b613120565b9050828152602081018484840111156124f557600080fd5b612500848285613363565b509392505050565b60008135905061251781613a97565b92915050565b60008135905061252c81613aae565b92915050565b60008135905061254181613ac5565b92915050565b60008151905061255681613ac5565b92915050565b600082601f83011261256d57600080fd5b813561257d84826020860161248c565b91505092915050565b600082601f83011261259757600080fd5b81356125a78482602086016124ca565b91505092915050565b6000813590506125bf81613adc565b92915050565b6000602082840312156125d757600080fd5b60006125e584828501612508565b91505092915050565b6000806040838503121561260157600080fd5b600061260f85828601612508565b925050602061262085828601612508565b9150509250929050565b60008060006060848603121561263f57600080fd5b600061264d86828701612508565b935050602061265e86828701612508565b925050604061266f868287016125b0565b9150509250925092565b6000806000806080858703121561268f57600080fd5b600061269d87828801612508565b94505060206126ae87828801612508565b93505060406126bf878288016125b0565b925050606085013567ffffffffffffffff8111156126dc57600080fd5b6126e88782880161255c565b91505092959194509250565b6000806040838503121561270757600080fd5b600061271585828601612508565b92505060206127268582860161251d565b9150509250929050565b6000806040838503121561274357600080fd5b600061275185828601612508565b9250506020612762858286016125b0565b9150509250929050565b60006020828403121561277e57600080fd5b600061278c84828501612532565b91505092915050565b6000602082840312156127a757600080fd5b60006127b584828501612547565b91505092915050565b6000806000606084860312156127d357600080fd5b600084013567ffffffffffffffff8111156127ed57600080fd5b6127f986828701612586565b935050602084013567ffffffffffffffff81111561281657600080fd5b61282286828701612586565b925050604084013567ffffffffffffffff81111561283f57600080fd5b61284b86828701612586565b9150509250925092565b60006020828403121561286757600080fd5b6000612875848285016125b0565b91505092915050565b6000806040838503121561289157600080fd5b600061289f858286016125b0565b92505060206128b0858286016125b0565b9150509250929050565b60006128c68383612cf9565b905092915050565b6128d7816132ef565b82525050565b60006128e8826131b7565b6128f281856131e5565b935083602082028501612904856131a7565b8060005b85811015612940578484038952815161292185826128ba565b945061292c836131d8565b925060208a01995050600181019050612908565b50829750879550505050505092915050565b61295b81613301565b82525050565b600061296c826131c2565b61297681856131f6565b9350612986818560208601613372565b61298f8161353e565b840191505092915050565b60006129a5826131cd565b6129af8185613207565b93506129bf818560208601613372565b6129c88161353e565b840191505092915050565b60006129de826131cd565b6129e88185613218565b93506129f8818560208601613372565b612a018161353e565b840191505092915050565b6000612a17826131cd565b612a218185613229565b9350612a31818560208601613372565b80840191505092915050565b6000612a4a603283613218565b9150612a558261354f565b604082019050919050565b6000612a6d602683613218565b9150612a788261359e565b604082019050919050565b6000612a90601c83613218565b9150612a9b826135ed565b602082019050919050565b6000612ab3603183613218565b9150612abe82613616565b604082019050919050565b6000612ad6603083613218565b9150612ae182613665565b604082019050919050565b6000612af9602483613218565b9150612b04826136b4565b604082019050919050565b6000612b1c601983613218565b9150612b2782613703565b602082019050919050565b6000612b3f602c83613218565b9150612b4a8261372c565b604082019050919050565b6000612b62603883613218565b9150612b6d8261377b565b604082019050919050565b6000612b85602a83613218565b9150612b90826137ca565b604082019050919050565b6000612ba8602983613218565b9150612bb382613819565b604082019050919050565b6000612bcb602083613218565b9150612bd682613868565b602082019050919050565b6000612bee602c83613218565b9150612bf982613891565b604082019050919050565b6000612c11602083613218565b9150612c1c826138e0565b602082019050919050565b6000612c34602983613218565b9150612c3f82613909565b604082019050919050565b6000612c57602f83613218565b9150612c6282613958565b604082019050919050565b6000612c7a602183613218565b9150612c85826139a7565b604082019050919050565b6000612c9d603183613218565b9150612ca8826139f6565b604082019050919050565b6000612cc0601683613218565b9150612ccb82613a45565b602082019050919050565b6000612ce3601883613218565b9150612cee82613a6e565b602082019050919050565b600060a083016000830151612d116000860182612d7d565b506020830151612d246020860182612d7d565b5060408301518482036040860152612d3c828261299a565b91505060608301518482036060860152612d56828261299a565b91505060808301518482036080860152612d70828261299a565b9150508091505092915050565b612d8681613359565b82525050565b612d9581613359565b82525050565b6000612da78285612a0c565b9150612db38284612a0c565b91508190509392505050565b6000602082019050612dd460008301846128ce565b92915050565b6000608082019050612def60008301876128ce565b612dfc60208301866128ce565b612e096040830185612d8c565b8181036060830152612e1b8184612961565b905095945050505050565b60006020820190508181036000830152612e4081846128dd565b905092915050565b6000602082019050612e5d6000830184612952565b92915050565b60006020820190508181036000830152612e7d81846129d3565b905092915050565b60006020820190508181036000830152612e9e81612a3d565b9050919050565b60006020820190508181036000830152612ebe81612a60565b9050919050565b60006020820190508181036000830152612ede81612a83565b9050919050565b60006020820190508181036000830152612efe81612aa6565b9050919050565b60006020820190508181036000830152612f1e81612ac9565b9050919050565b60006020820190508181036000830152612f3e81612aec565b9050919050565b60006020820190508181036000830152612f5e81612b0f565b9050919050565b60006020820190508181036000830152612f7e81612b32565b9050919050565b60006020820190508181036000830152612f9e81612b55565b9050919050565b60006020820190508181036000830152612fbe81612b78565b9050919050565b60006020820190508181036000830152612fde81612b9b565b9050919050565b60006020820190508181036000830152612ffe81612bbe565b9050919050565b6000602082019050818103600083015261301e81612be1565b9050919050565b6000602082019050818103600083015261303e81612c04565b9050919050565b6000602082019050818103600083015261305e81612c27565b9050919050565b6000602082019050818103600083015261307e81612c4a565b9050919050565b6000602082019050818103600083015261309e81612c6d565b9050919050565b600060208201905081810360008301526130be81612c90565b9050919050565b600060208201905081810360008301526130de81612cb3565b9050919050565b600060208201905081810360008301526130fe81612cd6565b9050919050565b600060208201905061311a6000830184612d8c565b92915050565b600061312a61313b565b905061313682826133d7565b919050565b6000604051905090565b600067ffffffffffffffff8211156131605761315f61350f565b5b6131698261353e565b9050602081019050919050565b600067ffffffffffffffff8211156131915761319061350f565b5b61319a8261353e565b9050602081019050919050565b6000819050602082019050919050565b600081519050919050565b600081519050919050565b600081519050919050565b6000602082019050919050565b600082825260208201905092915050565b600082825260208201905092915050565b600082825260208201905092915050565b600082825260208201905092915050565b600081905092915050565b600061323f82613359565b915061324a83613359565b9250827fffffffffffffffffffffffffffffffffffffffffffffffffffffffffffffffff0382111561327f5761327e613482565b5b828201905092915050565b600061329582613359565b91506132a083613359565b9250826132b0576132af6134b1565b5b828204905092915050565b60006132c682613359565b91506132d183613359565b9250828210156132e4576132e3613482565b5b828203905092915050565b60006132fa82613339565b9050919050565b60008115159050919050565b60007fffffffff0000000000000000000000000000000000000000000000000000000082169050919050565b600073ffffffffffffffffffffffffffffffffffffffff82169050919050565b6000819050919050565b82818337600083830152505050565b60005b83811015613390578082015181840152602081019050613375565b8381111561339f576000848401525b50505050565b600060028204905060018216806133bd57607f821691505b602082108114156133d1576133d06134e0565b5b50919050565b6133e08261353e565b810181811067ffffffffffffffff821117156133ff576133fe61350f565b5b80604052505050565b600061341382613359565b91507fffffffffffffffffffffffffffffffffffffffffffffffffffffffffffffffff82141561344657613445613482565b5b600182019050919050565b600061345c82613359565b915061346783613359565b925082613477576134766134b1565b5b828206905092915050565b7f4e487b7100000000000000000000000000000000000000000000000000000000600052601160045260246000fd5b7f4e487b7100000000000000000000000000000000000000000000000000000000600052601260045260246000fd5b7f4e487b7100000000000000000000000000000000000000000000000000000000600052602260045260246000fd5b7f4e487b7100000000000000000000000000000000000000000000000000000000600052604160045260246000fd5b6000601f19601f8301169050919050565b7f4552433732313a207472616e7366657220746f206e6f6e20455243373231526560008201527f63656976657220696d706c656d656e7465720000000000000000000000000000602082015250565b7f4f776e61626c653a206e6577206f776e657220697320746865207a65726f206160008201527f6464726573730000000000000000000000000000000000000000000000000000602082015250565b7f4552433732313a20746f6b656e20616c7265616479206d696e74656400000000600082015250565b7f73657453616c653a206d73672e73656e646572206973206e6f7420746865206f60008201527f776e6572206f662074686520746f6b656e000000000000000000000000000000602082015250565b7f627579546f6b656e3a20707269636520646f65736e277420657175616c20736160008201527f6c6550726963655b746f6b656e49645d00000000000000000000000000000000602082015250565b7f4552433732313a207472616e7366657220746f20746865207a65726f2061646460008201527f7265737300000000000000000000000000000000000000000000000000000000602082015250565b7f4552433732313a20617070726f766520746f2063616c6c657200000000000000600082015250565b7f4552433732313a206f70657261746f7220717565727920666f72206e6f6e657860008201527f697374656e7420746f6b656e0000000000000000000000000000000000000000602082015250565b7f4552433732313a20617070726f76652063616c6c6572206973206e6f74206f7760008201527f6e6572206e6f7220617070726f76656420666f7220616c6c0000000000000000602082015250565b7f4552433732313a2062616c616e636520717565727920666f7220746865207a6560008201527f726f206164647265737300000000000000000000000000000000000000000000602082015250565b7f4552433732313a206f776e657220717565727920666f72206e6f6e657869737460008201527f656e7420746f6b656e0000000000000000000000000000000000000000000000602082015250565b7f4552433732313a206d696e7420746f20746865207a65726f2061646472657373600082015250565b7f4552433732313a20617070726f76656420717565727920666f72206e6f6e657860008201527f697374656e7420746f6b656e0000000000000000000000000000000000000000602082015250565b7f4f776e61626c653a2063616c6c6572206973206e6f7420746865206f776e6572600082015250565b7f4552433732313a207472616e73666572206f6620746f6b656e2074686174206960008201527f73206e6f74206f776e0000000000000000000000000000000000000000000000602082015250565b7f4552433732314d657461646174613a2055524920717565727920666f72206e6f60008201527f6e6578697374656e7420746f6b656e0000000000000000000000000000000000602082015250565b7f4552433732313a20617070726f76616c20746f2063757272656e74206f776e6560008201527f7200000000000000000000000000000000000000000000000000000000000000602082015250565b7f4552433732313a207472616e736665722063616c6c6572206973206e6f74206f60008201527f776e6572206e6f7220617070726f766564000000000000000000000000000000602082015250565b7f4f6e6c79206f776e65722069732020616c6c6f77656400000000000000000000600082015250565b7f627579546f6b656e3a20707269636520657175616c7320300000000000000000600082015250565b613aa0816132ef565b8114613aab57600080fd5b50565b613ab781613301565b8114613ac257600080fd5b50565b613ace8161330d565b8114613ad957600080fd5b50565b613ae581613359565b8114613af057600080fd5b5056fea2646970667358221220df380e950afb999e7f8642fcde7c8e72301e700c365064a4c7f5f9be742f42db64736f6c63430008040033",
  "immutableReferences": {},
  "source": "//SPDX-License-Identifier: UNLICENSED\npragma solidity ^0.8.0;\n\n//eyJhbGciOiJIUzI1NiIsInR5cCI6IkpXVCJ9.eyJzdWIiOiJkaWQ6ZXRocjoweDczMzE5ZEQ2RkQ5MkJCMTlEZWYzNTMyNENDODQzNTFjMkRhODcwYTgiLCJpc3MiOiJuZnQtc3RvcmFnZSIsImlhdCI6MTYzMzEwNTg5MzI2NiwibmFtZSI6ImVuY29kZV9rZXkifQ.YnG2DMFB5SiQ1dfXPkZCn3q-QgTXEIKuj-IxSXceFP0\n\nimport \"@openzeppelin/contracts/access/Ownable.sol\";\nimport \"@openzeppelin/contracts/token/ERC721/ERC721.sol\";\nimport \"@openzeppelin/contracts/access/AccessControl.sol\";\n\ncontract WeMint is ERC721('WeMint','WMT'), Ownable {\n    uint256 tokenID;\n    \n    struct Metadata{\n        uint256 tokenID;\n        uint256 timestamp;\n        string tokenURI;\n        string tokenDescription;\n        string tokenName;\n    }\n    \n    mapping(uint256 => uint256) private salePrice;\n    \n    mapping(address => Metadata[]) tokenOwners;\n    \n     function getTokenID() internal returns (uint256) {\n        uint256 newTokenID = tokenID;\n        tokenID++;\n        return newTokenID;\n    }\n    \n       function purgeMetadata(uint256 tokenID) internal {\n       for(uint256 i=0; i<tokenOwners[msg.sender].length; i++) {\n            if(tokenOwners[msg.sender][i].tokenID == tokenID) {\n                delete tokenOwners[msg.sender][i];\n            }\n        }\n    }\n    \n    function setSale(uint256 tokenId, uint256 price) public {\n\t\taddress owner = ownerOf(tokenId);\n        require(owner == msg.sender, \"setSale: msg.sender is not the owner of the token\");\n        approve(address(this), tokenId);\n\t\tsalePrice[tokenId] = price;\n\t}\n\t\n\tfunction buyTokenOnSale(uint256 tokenId) public payable {\n    \tuint256 price = salePrice[tokenId];\n        require(price != 0, \"buyToken: price equals 0\");\n        require(msg.value == price, \"buyToken: price doesn't equal salePrice[tokenId]\");\n        address owner = address(ownerOf(tokenId));\n\t    salePrice[tokenId] = 0;\n\t    transferFrom(owner, msg.sender, tokenId);\n        payable (owner).transfer(msg.value);\n}\n\n    function safemint(string memory tokenURI, string memory nftName, string memory tokenDescription) public {\n        uint256 tokenID = getTokenID();\n        _safeMint(msg.sender, tokenID);\n\n        tokenOwners[msg.sender].push(\n            Metadata({timestamp: block.timestamp, tokenID: tokenID, tokenURI: tokenURI, tokenName: nftName, tokenDescription: tokenDescription})\n        );\n    }\n    \n    function getNfts() public view returns (Metadata[] memory){\n        return tokenOwners[msg.sender];\n    }\n\n    function burnToken(uint256 tokenID) public {\n        require(ownerOf(tokenID) == msg.sender, \"Only owner is  allowed\");\n        _burn(tokenID);\n        purgeMetadata(tokenID);\n    }\n\n \n    \n}",
  "sourcePath": "/Users/shankarraomata/Documents/encode/smart-contracts/contracts/WeMint.sol",
  "compiler": {
    "name": "solc",
    "version": "0.8.4+commit.c7e474f2.Emscripten.clang"
  },
  "schemaVersion": "3.4.3",
  "updatedAt": "2021-10-12T00:21:15.149Z",
  "networkType": "ethereum",
  "devdoc": {
    "kind": "dev",
    "methods": {
      "approve(address,uint256)": {
        "details": "See {IERC721-approve}."
      },
      "balanceOf(address)": {
        "details": "See {IERC721-balanceOf}."
      },
      "getApproved(uint256)": {
        "details": "See {IERC721-getApproved}."
      },
      "isApprovedForAll(address,address)": {
        "details": "See {IERC721-isApprovedForAll}."
      },
      "name()": {
        "details": "See {IERC721Metadata-name}."
      },
      "owner()": {
        "details": "Returns the address of the current owner."
      },
      "ownerOf(uint256)": {
        "details": "See {IERC721-ownerOf}."
      },
      "renounceOwnership()": {
        "details": "Leaves the contract without owner. It will not be possible to call `onlyOwner` functions anymore. Can only be called by the current owner. NOTE: Renouncing ownership will leave the contract without an owner, thereby removing any functionality that is only available to the owner."
      },
      "safeTransferFrom(address,address,uint256)": {
        "details": "See {IERC721-safeTransferFrom}."
      },
      "safeTransferFrom(address,address,uint256,bytes)": {
        "details": "See {IERC721-safeTransferFrom}."
      },
      "setApprovalForAll(address,bool)": {
        "details": "See {IERC721-setApprovalForAll}."
      },
      "supportsInterface(bytes4)": {
        "details": "See {IERC165-supportsInterface}."
      },
      "symbol()": {
        "details": "See {IERC721Metadata-symbol}."
      },
      "tokenURI(uint256)": {
        "details": "See {IERC721Metadata-tokenURI}."
      },
      "transferFrom(address,address,uint256)": {
        "details": "See {IERC721-transferFrom}."
      },
      "transferOwnership(address)": {
        "details": "Transfers ownership of the contract to a new account (`newOwner`). Can only be called by the current owner."
      }
    },
    "version": 1
  },
  "userdoc": {
    "kind": "user",
    "methods": {},
    "version": 1
  }
}